:100000000C9434000C9451000C9451000C94510049
:100010000C9451000C9451000C9451000C9451001C
:100020000C9451000C9451000C9451000C9451000C
:100030000C9451000C9451000C9451000C945100FC
:100040000C9451000C9451000C9451000C945100EC
:100050000C9451000C94D4060C9451000C94510053
:100060000C9451000C94510011241FBECFEFD8E026
:10007000DEBFCDBF11E0A0E0B1E0ECEDFEE002C0DC
:1000800005900D92AC30B107D9F718E0ACE0B1E0C3
:1000900001C01D92A731B107E1F70E94E0010C9465
:1000A0006C070C94000080E480937C0010927B002D
:1000B000EAE7F0E08DEA80838081806480830895A0
:1000C0008AE090E0909389008093880083E4809395
:1000D000800089E180938100219A08954198439896
:1000E000449842984598399A3B9A3C9A3A9A3D9A54
:1000F0000895009731F4229810928B0010928A0094
:100100000895229A90938B0080938A0008950E940C
:10011000600080E090E00E947900E0E8F0E08081FB
:1001200080628083089597FD08C0909314018093A6
:1001300013011092120110921101809115019091FA
:10014000160120911301309114018217930711F1C8
:100150004091110150911201BA016F5F7F4F70936E
:1001600012016093110142305105A0F082179307EC
:1001700018F421E030E002C02FEF3FEF820F931F11
:1001800090931601809315010E947900109212013C
:10019000109211010895982F906198B91AB89FEFA5
:1001A0009BB9846188B90000000000004F99FECF20
:1001B00088B908951F93182F0E94CB00912F906348
:1001C00098B91AB88FEF8BB9146318B90000000002
:1001D000000089B198B91F9108951F93DF93CF93C1
:1001E0000F92CDB7DEB7182F862F69830E94CB0000
:1001F0006981606268B91BB98FEF8AB90000429AC1
:1002000088B1847088B90F90CF91DF911F910895C4
:100210001F93DF93CF930F92CDB7DEB7182F862FA2
:1002200069830E94CB00698168B91BB98FEF8AB9D5
:100230000000429A88B1847088B90F90CF91DF9105
:100240001F9108951F93182FE0E5F3EC3197F1F714
:100250008FE3612F0E94080180EC612F0E9408014A
:1002600080E4612F0E9408011F910895EF92FF9290
:100270000F931F93082FE62E10E0812F886B602FBD
:100280000E94080180E4F82E8E2D602F0E94ED0060
:10029000FA94D1F71F5F183081F780EC602F0E942D
:1002A00008011F910F91FF90EF9008951F93182F51
:1002B00082E0612F0E94360188E0612F0E943601A2
:1002C0001F910895289A2A9A209A229A24982C9A63
:1002D000239A259A8CE58CBD8CB582608CBD8EB539
:1002E0008EB508950E9460000E9487000E946E00F3
:1002F00082E00E94220188E00E9422018FEF9FEF9E
:100300000E94790080EF0E94560180E197E224EF7D
:1003100031E0F9013197F1F70197D9F780E090E0EA
:100320000E9479000E9453000E9462018BE090E0DD
:100330000E949300789408952A98249A2C982B98D8
:100340002D981CBC08959DB5907C09F09EB58EBD7E
:100350008DB5807CE9F38EB50895EF92FF920F93EF
:100360001F93CF93DF938A0170E063707070660F04
:10037000771F660F771F8295807F862B2A98289893
:1003800000009A0120703170832B0E94A301982FE6
:1003900080E0EC01802F0E94A3012A9A289A282F3E
:1003A00030E02C2B3D2BC901DF91CF911F910F9194
:1003B000FF90EF900895AB0160E00E94AD010895B9
:1003C0000E94720180E06FEF70E00E94DB0181E02B
:1003D00060E870E00E94DB010E949C0187E196E0EA
:1003E00067E171E00E949F0487E191E00E94E404CC
:1003F00087E191E067E175E00E94AE0587E195E055
:1004000067E975E00E943D0787E195E00E943406A8
:100410008FEF9FEF0E949300E1CF63E045E550E04E
:100420000E94AD01089561E040E050E00E94AD01FE
:10043000089561E040E050E00E94AD0108953D0A5A
:10044000410A4F0A660A860AAF0AE10A1D0B610BD0
:10045000AE0B040C630CCB0C3C0DB50D370EC10E6E
:10046000540FEF0F93103E11F211AE1271133D14A1
:100470000F15EA15CB16B417A4189B19981A9D1BD3
:10048000A71CB81DCF1EEC1F0F213722652398240F
:10049000D0250D274F289529DF2A2E2C802DD62EEA
:1004A00030308C31EC324F34B4351C378538F1396B
:1004B0005F3BCE3C3E3EAF3F2141944207447B45EB
:1004C000EE466148D449464BB64C264E944F0151F6
:1004D0006C52D4533B559F5600585E59B95A115C23
:1004E000655DB65E02604B618E62CE6308653E66F6
:1004F0006E679968BF69DF6AF96B0D6D1B6E226FBD
:1005000023701D711172FD72E273C0749775667667
:100510002D77ED77A5785479FC799B7A327BC17B76
:10052000477CC57C3A7DA67D097E647EB67EFE7ED4
:100530003E7F757FA27FC77FE27FF57FFE7FFE7FD4
:10054000F57FE27FC77FA27F757F3E7FFE7EB67E0E
:10055000647E097EA67D3A7DC57C477CC17B327B6B
:100560009B7AFC795479A578ED772D776676977527
:10057000C074E273FD7211721D712370226F1B6EC5
:100580000D6DF96BDF6ABF6999686E673E66086535
:10059000CE638E624B610260B65E655D115CB95AD6
:1005A0005E5900589F563B55D4536C520151944F9D
:1005B000264EB64C464BD4496148EE467B4507442F
:1005C00094422141AF3F3E3ECE3C5F3BF1398538FE
:1005D0001C37B4354F34EC328C313030D62E802D70
:1005E0002E2CDF2A95294F280D27D0259824652306
:1005F00037220F21EC1FCF1EB81DA71C9D1B981A78
:100600009B19A418B417CB16EA150F153D147113D6
:10061000AE12F2113E119310EF0F540FC10E370EB0
:10062000B50D3C0DCB0C630C040CAE0B610B1D0B1C
:10063000E10AAF0A860A660A4F0A410A3D0AFF7FAD
:100640000000F57F2403D77F4706A67F6A09617FF4
:100650008B0C087FAB0F9C7EC7121C7EE115897D39
:10066000F818E27C0B1C297C191F5C7B23227C7A06
:1006700027258979262883781E2B6B77102E4076C4
:10068000FB300375DE33B573B93654728C39E170C3
:10069000563C5E6F163FC96DCD41236C7A446C6A3F
:1006A0001C47A568B349CE663F4CE764BF4EF16274
:1006B0003351EB609A53D65EF455B35C4258815A7D
:1006C000815A4258B35CF455D65E9A53EB6033516D
:1006D000F162BF4EE7643F4CCE66B349A5681C4744
:1006E0006C6A7A44236CCD41C96D163F5E6F563CEF
:1006F000E1708C395472B936B573DE330375FB3053
:100700004076102E6B771E2B837826288979272533
:100710007C7A23225C7B191F297C0B1CE27CF81855
:10072000897DE1151C7EC7129C7EAB0F087F8B0C68
:10073000617F6A09A67F4706D77F2403F57F000003
:10074000FE7FDCFCF57FB9F9D77F96F6A67F75F3BF
:10075000617F56F0087F39ED9C7E1FEA1C7E08E71A
:10076000897DF5E3E27CE7E0297CDDDD5C7BD9DA9D
:100770007C7ADAD78979E2D48378F0D16B7705CFA8
:10078000407622CC037547C9B57374C65472AAC3A8
:10079000E170EAC05E6F33BEC96D86BB236CE4B8FE
:1007A0006C6A4DB6A568C1B3CE6641B1E764CDAE03
:1007B000F16266ACEB600CAAD65EBEA7B35C7FA507
:1007C000815A4DA342582AA1F555159F9A530F9D62
:1007D0003351199BBF4E32993F4C5B97B349949567
:1007E0001C47DD937A443792CD41A290163F1F8F6C
:1007F000563CAC8D8C394C8CB936FD8ADE33C089C1
:10080000FB309588102E7D871E2B778626288485C1
:100810002725A4842322D883191F1E830B1C7782CB
:10082000F818E481E1156481C712F880AB0F9F804E
:100830008B0C5A806A09298047060B80240300002C
:10084000000200010003800080028001800340005C
:10085000400240014003C000C002C001C0032000AC
:10086000200220012003A000A002A001A00360003C
:10087000600260016003E000E002E001E0031000BC
:10088000100210011003900090029001900350009C
:10089000500250015003D000D002D001D0033000EC
:1008A000300230013003B000B002B001B00370007C
:1008B000700270017003F000F002F001F003080014
:1008C000080208010803880088028801880348009C
:1008D000480248014803C800C802C801C8032800EC
:1008E000280228012803A800A802A801A80368007C
:1008F000680268016803E800E802E801E8031800FC
:1009000018021801180398009802980198035800DB
:10091000580258015803D800D802D801D80338002B
:10092000380238013803B800B802B801B8037800BB
:10093000780278017803F800F802F801F8033F9292
:100940002F921F930F93DF93CF93DC01EB01992735
:10095000EEE3F4E000E011E0259135914D915D91D9
:10096000B503B0012C031001691FBC03790B300CD7
:10097000611D791FDA03790B300C611D791F6993B2
:100980007993699379930150104031F7CF91DF91BA
:100990000F911F912F903F90112408951F930F9353
:1009A000DF93CF93DC01EB0100E011E04D915D910D
:1009B000499359934993599301501040B9F7CF91F6
:1009C000DF910F911F9108953F922F925F924F9266
:1009D0007F926F929F928F92BF92AF92DF92CF924F
:1009E000FF92EF921F930F93DF93CF93FC0181E06F
:1009F00090E0A0E8B0E004E0809F6001909FD00C00
:100A00007C019F938F93EF01A09FC00DD11DB09FDC
:100A1000D00DFF93EF93BB24AA2499270081118165
:100A2000159507956881798175956795A801061BCD
:100A3000170B460F571F41935193208131813595F4
:100A400027956A817B8175956795A901261B370BD0
:100A5000460F571F419351930F01EEE3F6E0EA0D65
:100A6000FB1D4591559165917591F001950320010C
:100A70000C031001491E9C03590A300C411C591EDD
:100A8000D803590A300C411C591EB70340012E03EC
:100A90003001891EBE03990A700C811C991EFA034D
:100AA000990A700C811C991E260C371C481C591C75
:100AB00049925992B50320012C031001491EBC0331
:100AC000590A300C411C591EDA03590A300C411CDA
:100AD000591E970340010E033001891E9E03990A97
:100AE000700C811C991EF803990A700C811C991EC8
:100AF000261837084808590849925992AC0CBD1C71
:100B0000B1FE8CCF04E0A09FC00DD11DE00DF11D02
:100B1000B09FD00DF00D81E0E81AF90A09F07BCF03
:100B2000EF91FF918F919F91880F991FB695A7958F
:100B3000109609F060CFCF91DF910F911F91EF9048
:100B4000FF90CF90DF90AF90BF908F909F906F906D
:100B50007F904F905F902F903F9008953F922F92FB
:100B60005F924F927F926F929F928F92BF92AF92BD
:100B70001F930F93DF93CF935C01EB01EEE3F8E05B
:100B8000992700E810E0A591B591AA0DBB1D2D9104
:100B90003D914D915D91B30320012A031001491E3F
:100BA000BA03590A300C411C591EBA03590A300CB9
:100BB000411C591ED50340014C033001891EDC0342
:100BC000990A700C811C991EDC03990A700C811C17
:100BD000991E260C371C481C591C50EC442730E445
:100BE000221B18F04216530620F0421A530A242BF7
:100BF000352B5695479535272427221C331C441C3A
:100C0000551C20FEEECF18F0330C24053505251FAA
:100C100036952795369527952395299301501040B1
:100C200009F0B1CFCF91DF910F911F91AF90BF909D
:100C30008F909F906F907F904F905F902F903F90FC
:100C40000895AC019927D703F0014E03D001E91FA5
:100C5000DE03F90BB00DE11DF91FFC03F90BB00D1C
:100C6000E11DF91FCF0108951F930F932F933F9319
:100C70005F936F93CF93AF93BF93CF93DF93EF9334
:100C8000FF93112480589F4FCC273327DD2712E193
:100C900018B91AB8429AF92FE82F20E44F99FECFDD
:100CA00012E018B9132F186B1BB91FEF1AB9429A2B
:100CB0004298C0FD11C00291003071F0083020F060
:100CC000D1E008505FEF09C0A3E0B1E0A00FB11D73
:100CD00000275C91D1E001C05527008312E118B9CB
:100CE0001AB8429A12E26FEF4F99FECF18B95BB96A
:100CF0006AB9429A42982A9509F0DBCF3395383089
:100D000019F0D0FFC1E0C2CF805490403327CC27E8
:100D1000DD2718E118B91AB8429AF92FE82F20E414
:100D20004F99FECF18E018B9132F186B1BB91FEF9E
:100D30001AB9429A4298C0FD11C00291003071F078
:100D4000083020F0D1E008505FEF09C0A3E0B1E027
:100D5000A00FB11D0027D1E05C9101C05527008391
:100D600018E118B91AB8429A18E26FEF4F99FECFFE
:100D700018B95BB96AB9429A42982A9509F0DBCF53
:100D80003395383019F0D0FFC1E0C2CFFF91EF9119
:100D9000DF91CF91BF91AF91CF916F915F913F91D3
:100DA0002F910F911F91089578941F922F933F9345
:100DB0004F935F935FB75F93DF93CF93112450916D
:100DC000780040917900C0910001D0910101C731B4
:100DD000F1F430E022E05317420768F0325E2F4F03
:100DE00053174207E0F530910F012091100153177E
:100DF0004207A8F50CC03E5120405317420778F136
:100E000030910F01209110015317420740F13091AA
:100E10000C0120910D01530F420F50930C01409390
:100E20000D0130910E013A9519F030930E011BC05F
:100E300039E030930E0110920C0110920D0159937C
:100E40004993C0930001D0930101C751D84059F490
:100E500057E146E0409301015093000104C05093D4
:100E60000F0140931001CF91DF915F915FBF5F91C0
:100E70004F913F912F911F901895A82FB92FE62FD2
:100E8000F72F53E064E020E84081459F402D91E03A
:100E900088278894441F881F10F0861718F0861B37
:100EA000089401C08894991FA0F7492F3C9191E0C4
:100EB00088278894331F881F10F0861718F0861B28
:100EC000089401C08894991FA0F7302D490F4193D1
:0C0ED0004D932A95C9F60895F894FFCFC1
:0C0EDC0017063E040103070F1F3F7F00B4
:00000001FF
