:100000000C9434000C9451000C9451000C94510049
:100010000C9451000C9451000C9451000C9451001C
:100020000C9451000C9451000C9451000C9451000C
:100030000C9451000C9451000C9451000C945100FC
:100040000C9451000C9451000C9451000C945100EC
:100050000C9451000C9470080C9451000C945100B5
:100060000C9451000C94510011241FBECFEFD8E026
:10007000DEBFCDBF11E0A0E0B1E0EEEFF2E102C0E3
:1000800005900D92A431B107D9F718E0A4E1B1E0D1
:1000900001C01D92A433B107E1F70E943B030C9409
:1000A0007D090C94000080E480937C0010927B001A
:1000B000EAE7F0E08EEA808380818064808308959F
:1000C00080910001909101019093890080938800B4
:1000D00083E48093800089E180938100219A0895D0
:1000E00041984398449842984598399A3B9A3C9A4B
:1000F0003A9A3D9A0895009769F480910001909191
:100100000101019690938B0080938A00809180007A
:10011000806107C090938B0080938A00809180005B
:100120008F7E80938000089597FD08C090933101E1
:100130008093300110922F0110922E018091320194
:100140009091330120913001309131018217930752
:1001500011F140912E0150912F01BA016F5F7F4F35
:1001600070932F0160932E0143305105A0F0821748
:10017000930718F421E030E002C02FEF3FEF820F29
:10018000931F90933301809332010E947B00109261
:100190002F0110922E0108950E94600080E090E0EF
:1001A0000E949400229AE0E8F0E0808180628083DF
:1001B0000895982F906198B91AB89FEF9BB9846100
:1001C00088B90000000000004F99FECF88B908955B
:1001D0001F93182F0E94D900912F906398B91AB8D5
:1001E0008FEF8BB9146318B900000000000089B1CB
:1001F00098B91F9108951F93DF93CF930F92CDB7B6
:10020000DEB7182F862F69830E94D900698160624A
:1002100068B91BB98FEF8AB90000429A88B184701F
:1002200088B90F90CF91DF911F9108951F93DF93AD
:10023000CF930F92CDB7DEB7182F862F69830E9418
:10024000D900698168B91BB98FEF8AB90000429A59
:1002500088B1847088B90F90CF91DF911F91089574
:10026000682FE0E5F3EC3197F1F78EE30E94160179
:100270000895682F80E40E94160108951F93182F97
:10028000E0E5F3EC3197F1F78FE3612F0E9416015F
:1002900080EC612F0E941601812F0E9439011F916D
:1002A0000895EF92FF920F931F93082FE62E10E010
:1002B000812F886B602F0E94160180E4F82E8E2D0E
:1002C000602F0E94FB00FA94D1F71F5F183081F76E
:1002D00080EC602F0E9416011F910F91FF90EF900C
:1002E00008951F93182F82E0612F0E94510188E02A
:1002F000612F0E9451011F910895F894EAE7F0E000
:100300008FEA808380818064808380E090E00E9417
:10031000940080E00E94710182E00E94300188E038
:100320000E94300181E080931B0178940895289AFF
:100330002A9A209A229A24982C9A239A259A8CE514
:100340008CBD8DB581608DBD8EB58EB508952A9812
:10035000249A2C982B982D981CBC08959DB5907CC0
:1003600009F09EB58EBD8DB5807CE9F38EB50895FC
:10037000EF92FF920F931F93CF93DF938A0170E068
:1003800063707070660F771F660F771F8295807F8E
:10039000862B2A98289800009A0120703170832BB0
:1003A0000E94AE01982F80E0EC01802F0E94AE01E8
:1003B0002A9A289A282F30E02C2B3D2BC901DF9157
:1003C000CF911F910F91FF90EF900895AB0160E0E6
:1003D0000E94B8010895F89413BE80E06FE770E0C2
:1003E0000E94E60181E060E870E00E94E60181E0A1
:1003F00080930D0182E00E943E0188E00E943E0150
:10040000809100019091010101960E949400109248
:100410001B010E945300789408956F927F928F92EF
:100420009F92AF92BF92CF92DF92EF92FF920F9383
:100430001F93DF93CF930F92CDB7DEB7282F392FBD
:10044000F901EE24FF24870180E805C09191E90EAF
:10045000F11C011D111D8150C8F760912A01709196
:100460002B0180912C0190912D0128E130E040E09A
:1004700050E00E943C093B014C0129E1A22EB12C25
:10048000C12CD12CC801B701A60195010E945B09BE
:1004900079018A01C401B301A60195010E945B099B
:1004A000E20EF31E041F151FE0922A01F0922B01A9
:1004B00000932C0110932D01209113013091120112
:1004C00087E6E81688E0F80680E0080780E018076D
:1004D000D0F1303FE1F42130D1F480910E019091C0
:1004E0000F01A0911001B09111010097A105B10574
:1004F00009F052C080910D01843108F048C08F5F2F
:1005000080930D0180E88093120189EF3EC08AE05C
:1005100090E0A0E0B0E080930E0190930F01A093D3
:100520001001B0931101303829F4223018F0822FD5
:10053000815050C0832F8F5F80931201813F08F458
:1005400055C080EF51C0EAE1EE16E4E0FE06E0E0BF
:100550000E07E0E01E0708F049C0303849F52E3F8D
:1005600039F580910E0190910F01A0911001B09189
:1005700011010097A105B10579F480910D0188233F
:1005800031F0815080930D0185EA809313018AE058
:1005900090E0A0E0B0E003C00197A109B109809309
:1005A0000E0190930F01A0931001B09311011EC092
:1005B0008AE090E0A0E0B0E080930E0190930F01FC
:1005C000A0931001B0931101303839F42E3F28F474
:1005D000822F8F5F8093130109C0832F81508093F6
:1005E000120187FD03C080E880931201609112011F
:1005F000631731F081E070E029830E94E6012981D0
:1006000060911301621721F080E070E00E94E60122
:100610000F90CF91DF911F910F91FF90EF90DF909E
:10062000CF90BF90AF909F908F907F906F900895E4
:100630000E9460000E94CC000E94700082E00E9434
:100640003E0188E00E943E010E9453000E949701F3
:1006500080E06FE770E00E94E60181E060E870E012
:100660000E94E601809100019091010101960E9493
:100670009400789408951F93CF93DF9380E8E4E388
:10068000F5E0DF01982F1D929A95E9F7E4EBF5E08C
:10069000DF011D928A95E9F70E941803C0E0D4E0BB
:1006A00013E080911B018823D1F180912401909166
:1006B0002501A0912601B09127010196A11DB11D30
:1006C0008093240190932501A0932601B0932701E4
:1006D00080912801909129019C012F5F3F4F309319
:1006E0002901209328018B34910540F08FEF9FEF73
:1006F0000E949400109229011092280180911B0100
:10070000833019F40E947D01CCCF80911B0182308F
:1007100019F40E94EB01C5CF13BF8895C2CF109288
:100720002901109228018FEF9FEF0E94940084E32B
:1007300096E064E371E00E946B0684E391E00E941E
:10074000B00684E391E064E375E00E947A0784E3F5
:1007500095E064EB75E00E94240910923505109233
:10076000340584E395E00E940D02219751F480E462
:1007700062E00E94160180E468E00E941601C0E079
:10078000D4E084E395E00E940708809120019091D5
:100790002101A0912201B09123010196A11DB11D5B
:1007A0008093200190932101A0932201B093230113
:1007B00078CF63E045E550E00E94B801089561E01C
:1007C00040E050E00E94B801089561E040E050E050
:1007D0000E94B80108953D0A410A4F0A660A860A36
:1007E000AF0AE10A1D0B610BAE0B040C630CCB0CC2
:1007F0003C0DB50D370EC10E540FEF0F93103E1187
:10080000F211AE1271133D140F15EA15CB16B41781
:10081000A4189B19981A9D1BA71CB81DCF1EEC1F6E
:100820000F21372265239824D0250D274F2895299D
:10083000DF2A2E2C802DD62E30308C31EC324F34E6
:10084000B4351C378538F1395F3BCE3C3E3EAF3F77
:100850002141944207447B45EE466148D449464BCA
:10086000B64C264E944F01516C52D4533B559F5673
:1008700000585E59B95A115C655DB65E02604B6105
:100880008E62CE6308653E666E679968BF69DF6AEF
:10089000F96B0D6D1B6E226F23701D711172FD724D
:1008A000E273C074977566762D77ED77A5785479E5
:1008B000FC799B7A327BC17B477CC57C3A7DA67DE7
:1008C000097E647EB67EFE7E3E7F757FA27FC77FF7
:1008D000E27FF57FFE7FFE7FF57FE27FC77FA27F0D
:1008E000757F3E7FFE7EB67E647E097EA67D3A7D64
:1008F000C57C477CC17B327B9B7AFC795479A57897
:10090000ED772D7766769775C074E273FD7211727C
:100910001D712370226F1B6E0D6DF96BDF6ABF694D
:1009200099686E673E660865CE638E624B610260B1
:10093000B65E655D115CB95A5E5900589F563B55CD
:10094000D4536C520151944F264EB64C464BD44969
:100950006148EE467B45074494422141AF3F3E3E0D
:10096000CE3C5F3BF13985381C37B4354F34EC321F
:100970008C313030D62E802D2E2CDF2A95294F2811
:100980000D27D0259824652337220F21EC1FCF1E79
:10099000B81DA71C9D1B981A9B19A418B417CB1639
:1009A000EA150F153D147113AE12F2113E1193109A
:1009B000EF0F540FC10E370EB50D3C0DCB0C630C71
:1009C000040CAE0B610B1D0BE10AAF0A860A660A26
:1009D0004F0A410A3D0AFF7F0000F57F2403D77FBD
:1009E0004706A67F6A09617F8B0C087FAB0F9C7E50
:1009F000C7121C7EE115897DF818E27C0B1C297C4E
:100A0000191F5C7B23227C7A272589792628837805
:100A10001E2B6B77102E4076FB300375DE33B573DB
:100A2000B93654728C39E170563C5E6F163FC96D11
:100A3000CD41236C7A446C6A1C47A568B349CE66E5
:100A40003F4CE764BF4EF1623351EB609A53D65E80
:100A5000F455B35C4258815A815A4258B35CF455FC
:100A6000D65E9A53EB603351F162BF4EE7643F4C60
:100A7000CE66B349A5681C476C6A7A44236CCD41A5
:100A8000C96D163F5E6F563CE1708C395472B936B1
:100A9000B573DE330375FB304076102E6B771E2B5B
:100AA00083782628897927257C7A23225C7B191F65
:100AB000297C0B1CE27CF818897DE1151C7EC7128D
:100AC0009C7EAB0F087F8B0C617F6A09A67F47066F
:100AD000D77F2403F57F0000FE7FDCFCF57FB9F9AA
:100AE000D77F96F6A67F75F3617F56F0087F39EDC4
:100AF0009C7E1FEA1C7E08E7897DF5E3E27CE7E047
:100B0000297CDDDD5C7BD9DA7C7ADAD78979E2D49D
:100B10008378F0D16B7705CF407622CC037547C937
:100B2000B57374C65472AAC3E170EAC05E6F33BE77
:100B3000C96D86BB236CE4B86C6A4DB6A568C1B3B9
:100B4000CE6641B1E764CDAEF16266ACEB600CAA53
:100B5000D65EBEA7B35C7FA5815A4DA342582AA199
:100B6000F555159F9A530F9D3351199BBF4E3299DE
:100B70003F4C5B97B34994951C47DD937A44379279
:100B8000CD41A290163F1F8F563CAC8D8C394C8CBA
:100B9000B936FD8ADE33C089FB309588102E7D87FB
:100BA0001E2B7786262884852725A4842322D88394
:100BB000191F1E830B1C7782F818E481E1156481EC
:100BC000C712F880AB0F9F808B0C5A806A0929806E
:100BD00047060B8024030000000200010003800090
:100BE0008002800180034000400240014003C000B9
:100BF000C002C001C0032000200220012003A00089
:100C0000A002A001A0036000600260016003E00098
:100C1000E002E001E0031000100210011003900058
:100C20009002900190035000500250015003D000F8
:100C3000D002D001D0033000300230013003B000C8
:100C4000B002B001B0037000700270017003F000D8
:100C5000F002F001F0030800080208010803880010
:100C60008802880188034800480248014803C800F8
:100C7000C802C801C8032800280228012803A800C8
:100C8000A802A801A8036800680268016803E800D8
:100C9000E802E801E8031800180218011803980098
:100CA0009802980198035800580258015803D80038
:100CB000D802D801D8033800380238013803B80008
:100CC000B802B801B8037800780278017803F80018
:100CD000F802F801F8033F922F921F930F93DF93CE
:100CE000CF93DC01EB019927E6EDF7E000E011E09E
:100CF000259135914D915D91B503B0012C03100103
:100D0000691FBC03790B300C611D791FDA03790B65
:100D1000300C611D791F6993799369937993015020
:100D2000104031F7CF91DF910F911F912F903F909D
:100D3000112408951F930F93DF93CF93DC01EB01F0
:100D400000E011E04D915D91499359934993599376
:100D500001501040B9F7CF91DF910F911F91089585
:100D60003F922F925F924F927F926F929F928F92BB
:100D7000BF92AF92DF92CF92FF92EF921F930F93A9
:100D8000DF93CF93FC0181E090E0A0E8B0E004E0C5
:100D9000809F6001909FD00C7C019F938F93EF0107
:100DA000A09FC00DD11DB09FD00DFF93EF93BB242A
:100DB000AA24992700811181159507956881798169
:100DC00075956795A801061B170B460F571F419392
:100DD000519320813181359527956A817B81759565
:100DE0006795A901261B370B460F571F4193519357
:100DF0000F01E6EDF9E0EA0DFB1D45915591659176
:100E00007591F001950320010C031001491E9C030C
:100E1000590A300C411C591ED803590A300C411C88
:100E2000591EB70340012E033001891EBE03990AE3
:100E3000700C811C991EFA03990A700C811C991E72
:100E4000260C371C481C591C49925992B5032001A5
:100E50002C031001491EBC03590A300C411C591EB9
:100E6000DA03590A300C411C591E970340010E0346
:100E70003001891E9E03990A700C811C991EF8038B
:100E8000990A700C811C991E2618370848085908C1
:100E900049925992AC0CBD1CB1FE8CCF04E0A09FCE
:100EA000C00DD11DE00DF11DB09FD00DF00D81E002
:100EB000E81AF90A09F07BCFEF91FF918F919F918A
:100EC000880F991FB695A795109609F060CFCF911E
:100ED000DF910F911F91EF90FF90CF90DF90AF9037
:100EE000BF908F909F906F907F904F905F902F90CA
:100EF0003F9008953F922F925F924F927F926F9210
:100F00009F928F92BF92AF921F930F93DF93CF93D5
:100F10005C01EB01E6EDFBE0992700E810E0A5910C
:100F2000B591AA0DBB1D2D913D914D915D91B303DE
:100F300020012A031001491EBA03590A300C411C32
:100F4000591EBA03590A300C411C591ED5034001E1
:100F50004C033001891EDC03990A700C811C991E18
:100F6000DC03990A700C811C991E260C371C481C46
:100F7000591C50EC442730E4221B18F0421653064B
:100F800020F0421A530A242B352B569547953527C6
:100F90002427221C331C441C551C20FEEECF18F0C5
:100FA000330C24053505251FA0910D01A03021F03B
:100FB00036952795AA95E1F7303009F401C02FEF57
:100FC00029930150104009F0AACFCF91DF910F91E2
:100FD0001F91AF90BF908F909F906F907F904F9098
:100FE0005F902F903F900895AC019927D703F001AF
:100FF0004E03D001E91FDE03F90BB00DE11DF91F0F
:10100000FC03F90BB00DE11DF91FCF0108951F93EB
:101010000F932F933F935F936F93CF93AF93BF93B0
:10102000CF93DF93EF93FF937F93112472E0805867
:101030009F4FCC273327DD2710E1172B18B91AB89B
:10104000429AF92FE82F20E44F99FECF78B9132F59
:10105000186B1BB91FEF1AB9429A4298C0FD11C014
:101060000291003071F0083020F0D1E008505FEFBD
:1010700009C0A5E0B1E0A00FB11D00275C91D1E04F
:1010800001C05527008310E1172B18B91AB8429AEE
:1010900010E2172B6FEF4F99FECF18B95BB96AB901
:1010A000429A42982A9509F0D9CF3395383019F0F1
:1010B000D0FFC1E0C0CF80549040783011F078E08C
:1010C000B8CF7F91FF91EF91DF91CF91BF91AF9119
:1010D000CF916F915F913F912F910F911F91089543
:1010E00078941F922F933F934F935F935FB75F93D3
:1010F000DF93CF936F931124509178004091790042
:101100003EEE21E0C0911B01C03039F05317420779
:1011100018F432E030931B018CC05317420708F1DA
:10112000C0911C01D0911D0130911E0120911F0121
:10113000CF5FDF4F3F4F2F4FC0931C01D0931D0156
:1011400030931E0120931F0160E4C61762E4D607A6
:101150006FE0360760E0260760F033E030931B0154
:1011600000C010921C0110921D0110921E011092DD
:101170001F01C0910201D0910301C43391F530E009
:1011800022E05317420768F038582F4F5317420791
:10119000C8F430911701209118015317420790F4B9
:1011A00020C0385720405317420760F03091170194
:1011B000209118015317420728F01092190110923C
:1011C0001A010FC03091190120911A013F5F2F4F72
:1011D0003093190120931A0150931701409318017D
:1011E00028C03091140120911501530F420F5093E4
:1011F000140140931501309116013A9519F030937E
:10120000160117C033E030931601109214011092AA
:10121000150159934993C0930201D0930301C4531C
:10122000D84039F454E346E040930301509302015F
:1012300000C06F91CF91DF915F915FBF5F914F9140
:101240003F912F911F901895A82FB92FE62FF72FB8
:1012500053E020E84081459F402D612D66954795DC
:10126000669547953C91369536953695430F419353
:101270004D932A9579F70895629FD001739FF001ED
:10128000829FE00DF11D649FE00DF11D929FF00D16
:10129000839FF00D749FF00D659FF00D9927729F4D
:1012A000B00DE11DF91F639FB00DE11DF91FBD01D8
:1012B000CF0111240895A1E21A2EAA1BBB1BFD0128
:1012C0000DC0AA1FBB1FEE1FFF1FA217B307E40725
:1012D000F50720F0A21BB30BE40BF50B661F771F7D
:1012E000881F991F1A9469F760957095809590955D
:0E12F0009B01AC01BD01CF010895F894FFCF22
:1012FE0003003406D6070103070F1F3F7F010A00C4
:04130E000000807FDC
:00000001FF
